:100000000C9434000C9451000C9451000C94510049
:100010000C9451000C9451000C9451000C9451001C
:100020000C9451000C9451000C9451000C9451000C
:100030000C9451000C9451000C9451000C945100FC
:100040000C9451000C9451000C94C8000C94510075
:100050000C9451000C9451000C9451000C945100DC
:100060000C9451000C94510011241FBECFEFD8E026
:10007000DEBFCDBF11E0A0E0B1E0E4E1FAE002C0F4
:1000800005900D92A034B107D9F711E0A0E4B1E0DA
:1000900001C01D92A338B107E1F70E9453000C94F0
:1000A00008050C9400008F929F92AF92BF92DF924E
:1000B000EF92FF920F931F93DF93CF93CDB7DEB7ED
:1000C000C054D0400FB6F894DEBF0FBECDBF60E87D
:1000D00075E280E090E00E94F40090E9892E91E0C2
:1000E000992E7E010894E11CF11C8BE3A82E81E07F
:1000F000B82E80E091E00E941F010E941401882325
:10010000E1F388EE93E0F4013197F1F70197D9F725
:100110000E9482018C0185E191E00E941F01C701CC
:100120000E941F0189E291E00E941F010CC0C801DA
:100130006AE070E00E94FA01D80EC8016AE070E03F
:100140000E94FA018B010115110589F78CE291E0FB
:100150000E941F0100D000D000D0EDB7FEB731964D
:10016000ADB7BEB71296FC92EE921197B382A282FF
:10017000D48215820E9430028DB79EB706960FB6C4
:10018000F8949EBF0FBE8DBFC7010E941F01B1CF63
:100190001F920F920FB60F9211248F939F93EF939C
:1001A000FF93809142019091C600E82FF0E0ED5B53
:1001B000FE4F90838F5F80934201809142018F7345
:1001C0008093420180914001803428F48091400165
:1001D0008F5F80934001FF91EF919F918F910F90DE
:1001E0000FBE0F901F9018959B01AC0180E2809389
:1001F000C00088E98093C10086E08093C20084E05B
:10020000220F331F441F551F8A95D1F760E074E217
:1002100084EF90E00E940E02215030403093C500E0
:100220002093C40078940895809140010895982FF8
:100230008091C00085FFFCCF9093C6000895FC011B
:1002400007C08091C00085FFFCCF9093C600319617
:1002500090819923B1F708959C01F9012F5F3F4FD9
:100260009491992339F08091C00085FFFCCF909341
:10027000C600F3CF089580914001882311F4EFEF79
:1002800014C080914101E82FF0E0ED5BFE4FE0816A
:100290008F5F80934101809141018F738093410171
:1002A000809140018150809340018E2F0895EF92FC
:1002B000FF921F93CF93DF937C0110E006C00E9452
:1002C0003B01CE0DDF1D88831F5F80914001C12F50
:1002D000D0E08823A1F7CE0DDF1D1882812FDF919A
:1002E000CF911F91FF90EF90089580914001882356
:1002F00011F48FEF0895E0914101F0E0ED5BFE4FC6
:10030000808108951F93CF93DF9302C00E943B0129
:1003100080914001882341F0E0914101F0E0ED5BE4
:10032000FE4F8081803364F480914001882371F313
:10033000E0914101F0E0ED5BFE4F80818D3231F7BD
:1003400080914001882341F0E0914101F0E0ED5BB4
:10035000FE4F80818A33D4F680914001882361F07A
:10036000E0914101F0E0ED5BFE4F80818D3221F4A0
:100370000E943B011FEF01C011E0C0E0D0E012C0BD
:100380000E943B019E0143E0220F331F4A95E1F793
:10039000CC0FDD1FC20FD31FE097992787FD9095E3
:1003A000C80FD91F809140018823A1F0E09141013D
:1003B000F0E0ED5BFE4F8081803364F0809140017E
:1003C0008823F1F2E0914101F0E0ED5BFE4F808186
:1003D0008A33B4F2812F992787FD9095C89F9001A9
:1003E000C99F300DD89F300D1124C901DF91CF91E5
:1003F0001F910895AA1BBB1B51E107C0AA1FBB1F79
:10040000A617B70710F0A61BB70B881F991F5A95A0
:10041000A9F780959095BC01CD010895A1E21A2E0F
:10042000AA1BBB1BFD010DC0AA1FBB1FEE1FFF1F98
:10043000A217B307E407F50720F0A21BB30BE40BE8
:10044000F50B661F771F881F991F1A9469F760952F
:100450007095809590959B01AC01BD01CF010895E9
:10046000AEE0B0E0E6E3F2E00C94DF040D891E8913
:1004700086E08C831A8309838FEF9FE79E838D83A9
:100480009E01275E3F4FCE0101966F89788DA901AD
:100490000E9454022F813885020F131FF801108229
:1004A0002E96E4E00C94FB04ABE0B0E0EAE5F2E069
:1004B0000C94D1043C012B015A01FC0117821682D5
:1004C000838181FD03C06FEF7FEFC6C19AE0892E63
:1004D0001E010894211C311CF3012381F20123FD2C
:1004E000859123FF81912F01882309F4B2C18532C0
:1004F00039F423FD859123FF81912F01853229F461
:1005000090E0B3010E944704E7CF982FFF24EE2428
:100510009924FFE1FF15D0F09B3269F09C3228F45A
:10052000903259F0933291F40EC09D3249F09033DD
:1005300069F441E024C052E0F52A84E0F82A28C09A
:1005400098E0F92A25C0E0E1FE2A22C0F7FC29C084
:10055000892F80538A3070F4F6FE05C0989C902C49
:100560001124980E15C0E89CE02C1124E80EF0E24E
:10057000FF2A0EC09E3229F4F6FC6BC140E4F42A37
:1005800007C09C3619F450E8F52A02C0983649F4A1
:10059000F20123FD959123FF91912F01992309F0F9
:1005A000B8CF892F8554833018F08052833038F4C7
:1005B00044E050E0A40EB51E5FE359830FC09336AC
:1005C00031F0933779F0933509F056C020C0F5012A
:1005D0008081898342E050E0A40EB51E610101E0F4
:1005E00010E012C0F501C080D180F6FC03C06FEFAF
:1005F0007FEF02C0692D70E042E050E0A40EB51E0E
:10060000C6010E943C048C015FE7F52214C0F5018D
:10061000C080D180F6FC03C06FEF7FEF02C0692D70
:1006200070E042E050E0A40EB51EC6010E94310405
:100630008C0150E8F52AF3FE07C01AC080E290E072
:10064000B3010E944704EA948E2D90E00817190721
:10065000A8F30EC0F601F7FC8591F7FE81916F01BA
:1006600090E0B3010E944704E110EA940150104069
:100670000115110579F7EAC0943611F0993669F53C
:10068000F7FE08C0F501208131814281538184E069
:1006900090E00AC0F501808191819C01442737FDDB
:1006A0004095542F82E090E0A80EB91E9FE6F922F3
:1006B00057FF09C050954095309521953F4F4F4FBA
:1006C0005F4FE0E8FE2ACA01B901A1012AE030E04B
:1006D0000E947304D82ED21840C0953729F41F2DDC
:1006E0001F7E2AE030E01DC01F2D197F9F3661F06C
:1006F000903720F4983509F0ACC00FC0903739F02E
:10070000983709F0A6C004C028E030E00AC01061A4
:1007100014FD146020E130E004C014FD166020E1F7
:1007200032E017FF08C0F5016081718182819381F9
:1007300044E050E008C0F50180819181BC0180E077
:1007400090E042E050E0A40EB51EA1010E947304A7
:10075000D82ED2188FE7F82EF122F6FE0BC05EEFEE
:10076000F522D91438F4F4FE07C0F2FC05C08FEE70
:10077000F82202C01D2D01C0192DF4FE0DC0FE018E
:10078000ED0DF11D8081803319F499EEF92208C036
:100790001F5FF2FE05C003C08F2D867809F01F5F32
:1007A0000F2DF3FC14C0F0FE0FC01E1510F09D2C91
:1007B0000BC09D2C9E0C911A1E2D06C080E290E06D
:1007C000B3010E9447041F5F1E15C0F304C01E152D
:1007D00010F4E11A01C0EE2404FF0FC080E390E0A2
:1007E000B3010E94470402FF1DC001FD03C088E75A
:1007F00090E00EC088E590E00BC0802F867891F0E5
:1008000001FF02C08BE201C080E2F7FC8DE290E0C4
:10081000B3010E94470406C080E390E0B3010E9448
:1008200047049A94D914C0F3DA94F101ED0DF11D47
:10083000808190E0B3010E944704DD20A9F706C043
:1008400080E290E0B3010E944704EA94EE20C1F7F1
:1008500043CEF30166817781CB012B96E2E10C94C4
:10086000ED04FC010590615070400110D8F78095AF
:1008700090958E0F9F1F0895FC016150704001906C
:100880000110D8F7809590958E0F9F1F08950F93B4
:100890001F93CF93DF938C01EB018B8181FF1BC0F2
:1008A00082FF0DC02E813F818C819D8128173907E1
:1008B00064F4E881F9810193F983E88306C0E8854F
:1008C000F985802F0995892B31F48E819F810196BE
:1008D0009F838E8302C00FEF1FEFC801DF91CF917E
:1008E0001F910F910895FA01AA27283051F1203164
:1008F00081F1E8946F936E7F6E5F7F4F8F4F9F4FB4
:10090000AF4FB1E03ED0B4E03CD0670F781F891FF5
:100910009A1FA11D680F791F8A1F911DA11D6A0FC3
:10092000711D811D911DA11D20D009F468943F9176
:100930002AE0269F11243019305D3193DEF6CF0175
:100940000895462F4770405D4193B3E00FD0C9F73B
:10095000F6CF462F4F70405D4A3318F0495D31FDA8
:100960004052419302D0A9F7EACFB4E0A6959795FB
:10097000879577956795BA95C9F7009761057105D1
:1009800008959B01AC010A2E06945795479537951B
:100990002795BA95C9F7620F731F841F951FA01D75
:1009A00008952F923F924F925F926F927F928F9213
:1009B0009F92AF92BF92CF92DF92EF92FF920F93EE
:1009C0001F93CF93DF93CDB7DEB7CA1BDB0B0FB6F8
:1009D000F894DEBF0FBECDBF09942A8839884888B5
:1009E0005F846E847D848C849B84AA84B984C8844B
:1009F000DF80EE80FD800C811B81AA81B981CE0F42
:100A0000D11D0FB6F894DEBF0FBECDBFED01089526
:040A1000F894FFCF88
:100A1400556E65736974652063656F2062726F6AD1
:100A24003A200D0A00556E656C6920737465206266
:100A3400726F6A203A200D0A000D0A005661732075
:100A44007A626972206A65203A20002564200000D9
:00000001FF
